{
  "_format": "hh-sol-artifact-1",
  "contractName": "CounterfeitMed",
  "sourceName": "contracts/counterfeit.sol",
  "abi": [
    {
      "anonymous": false,
      "inputs": [
        {
          "indexed": true,
          "internalType": "bytes32",
          "name": "id",
          "type": "bytes32"
        },
        {
          "indexed": false,
          "internalType": "string",
          "name": "name",
          "type": "string"
        }
      ],
      "name": "DistributorRegistered",
      "type": "event"
    },
    {
      "anonymous": false,
      "inputs": [
        {
          "indexed": true,
          "internalType": "bytes32",
          "name": "id",
          "type": "bytes32"
        },
        {
          "indexed": false,
          "internalType": "string",
          "name": "name",
          "type": "string"
        }
      ],
      "name": "ManufacturerRegistered",
      "type": "event"
    },
    {
      "anonymous": false,
      "inputs": [
        {
          "indexed": true,
          "internalType": "bytes32",
          "name": "id",
          "type": "bytes32"
        },
        {
          "indexed": false,
          "internalType": "string",
          "name": "name",
          "type": "string"
        }
      ],
      "name": "ManufacturerVerified",
      "type": "event"
    },
    {
      "anonymous": false,
      "inputs": [
        {
          "indexed": true,
          "internalType": "bytes32",
          "name": "id",
          "type": "bytes32"
        },
        {
          "indexed": false,
          "internalType": "bytes32",
          "name": "distributorId",
          "type": "bytes32"
        }
      ],
      "name": "MedicineBought",
      "type": "event"
    },
    {
      "anonymous": false,
      "inputs": [
        {
          "components": [
            {
              "internalType": "string",
              "name": "name",
              "type": "string"
            },
            {
              "internalType": "bytes32",
              "name": "manufacturerId",
              "type": "bytes32"
            },
            {
              "internalType": "string",
              "name": "dosageForm",
              "type": "string"
            },
            {
              "internalType": "string",
              "name": "batchId",
              "type": "string"
            },
            {
              "internalType": "string[]",
              "name": "ingredients",
              "type": "string[]"
            },
            {
              "internalType": "uint256",
              "name": "approvedDate",
              "type": "uint256"
            },
            {
              "internalType": "uint256",
              "name": "expiryDate",
              "type": "uint256"
            },
            {
              "internalType": "uint256",
              "name": "price",
              "type": "uint256"
            },
            {
              "internalType": "bool",
              "name": "isVerified",
              "type": "bool"
            },
            {
              "internalType": "string",
              "name": "description",
              "type": "string"
            }
          ],
          "indexed": false,
          "internalType": "struct CounterfeitMed.MedicineRegistration",
          "name": "medicine",
          "type": "tuple"
        }
      ],
      "name": "MedicineConsoleLogged",
      "type": "event"
    },
    {
      "anonymous": false,
      "inputs": [
        {
          "indexed": true,
          "internalType": "bytes32",
          "name": "medicineId",
          "type": "bytes32"
        },
        {
          "indexed": false,
          "internalType": "bytes32",
          "name": "distributorId",
          "type": "bytes32"
        },
        {
          "indexed": false,
          "internalType": "bytes32",
          "name": "manufacturerId",
          "type": "bytes32"
        }
      ],
      "name": "MedicinePurchased",
      "type": "event"
    },
    {
      "anonymous": false,
      "inputs": [
        {
          "indexed": true,
          "internalType": "bytes32",
          "name": "id",
          "type": "bytes32"
        },
        {
          "indexed": false,
          "internalType": "string",
          "name": "name",
          "type": "string"
        }
      ],
      "name": "MedicineRegistered",
      "type": "event"
    },
    {
      "anonymous": false,
      "inputs": [
        {
          "indexed": true,
          "internalType": "bytes32",
          "name": "id",
          "type": "bytes32"
        }
      ],
      "name": "MedicineVerified",
      "type": "event"
    },
    {
      "anonymous": false,
      "inputs": [
        {
          "indexed": true,
          "internalType": "bytes32",
          "name": "id",
          "type": "bytes32"
        },
        {
          "indexed": false,
          "internalType": "string",
          "name": "name",
          "type": "string"
        }
      ],
      "name": "PharmacyRegistered",
      "type": "event"
    },
    {
      "inputs": [
        {
          "internalType": "bytes32",
          "name": "_distributorId",
          "type": "bytes32"
        },
        {
          "internalType": "bytes32",
          "name": "_manufacturerId",
          "type": "bytes32"
        },
        {
          "internalType": "bytes32",
          "name": "_medicineHash",
          "type": "bytes32"
        }
      ],
      "name": "buyMedicine",
      "outputs": [],
      "stateMutability": "nonpayable",
      "type": "function"
    },
    {
      "inputs": [
        {
          "internalType": "bytes32",
          "name": "",
          "type": "bytes32"
        }
      ],
      "name": "distributors",
      "outputs": [
        {
          "internalType": "string",
          "name": "name",
          "type": "string"
        },
        {
          "internalType": "string",
          "name": "businessRegistrationNumber",
          "type": "string"
        },
        {
          "internalType": "string",
          "name": "distributionLicenseNumber",
          "type": "string"
        },
        {
          "internalType": "string",
          "name": "description",
          "type": "string"
        },
        {
          "internalType": "string",
          "name": "password",
          "type": "string"
        },
        {
          "internalType": "bytes32",
          "name": "id",
          "type": "bytes32"
        },
        {
          "internalType": "bool",
          "name": "isRegistered",
          "type": "bool"
        }
      ],
      "stateMutability": "view",
      "type": "function"
    },
    {
      "inputs": [
        {
          "internalType": "bytes32",
          "name": "_medicineHash",
          "type": "bytes32"
        }
      ],
      "name": "getMedicineHistory",
      "outputs": [
        {
          "internalType": "string",
          "name": "manufacturerName",
          "type": "string"
        },
        {
          "internalType": "string",
          "name": "manufacturerBusinessRegistrationNumber",
          "type": "string"
        },
        {
          "internalType": "string",
          "name": "manufacturerManufacturingLicenseNumber",
          "type": "string"
        },
        {
          "internalType": "string",
          "name": "manufacturerContactInfo",
          "type": "string"
        },
        {
          "internalType": "string",
          "name": "distributorName",
          "type": "string"
        },
        {
          "internalType": "string",
          "name": "distributorBusinessRegistrationNumber",
          "type": "string"
        },
        {
          "internalType": "string",
          "name": "distributorDistributionLicenseNumber",
          "type": "string"
        },
        {
          "internalType": "string",
          "name": "distributorDescription",
          "type": "string"
        },
        {
          "internalType": "uint256",
          "name": "approvedDate",
          "type": "uint256"
        },
        {
          "internalType": "uint256",
          "name": "expiryDate",
          "type": "uint256"
        },
        {
          "internalType": "uint256",
          "name": "price",
          "type": "uint256"
        }
      ],
      "stateMutability": "view",
      "type": "function"
    },
    {
      "inputs": [
        {
          "internalType": "string",
          "name": "_name",
          "type": "string"
        },
        {
          "internalType": "string",
          "name": "_password",
          "type": "string"
        }
      ],
      "name": "login",
      "outputs": [
        {
          "internalType": "bytes32",
          "name": "",
          "type": "bytes32"
        },
        {
          "internalType": "string",
          "name": "",
          "type": "string"
        }
      ],
      "stateMutability": "view",
      "type": "function"
    },
    {
      "inputs": [
        {
          "internalType": "bytes32",
          "name": "",
          "type": "bytes32"
        }
      ],
      "name": "manufacturers",
      "outputs": [
        {
          "internalType": "string",
          "name": "name",
          "type": "string"
        },
        {
          "internalType": "string",
          "name": "businessRegistrationNumber",
          "type": "string"
        },
        {
          "internalType": "string",
          "name": "manufacturingLicenseNumber",
          "type": "string"
        },
        {
          "internalType": "string",
          "name": "contactInfo",
          "type": "string"
        },
        {
          "internalType": "string",
          "name": "password",
          "type": "string"
        },
        {
          "internalType": "bool",
          "name": "isVerified",
          "type": "bool"
        },
        {
          "internalType": "bytes32",
          "name": "id",
          "type": "bytes32"
        },
        {
          "internalType": "bool",
          "name": "isRegistered",
          "type": "bool"
        }
      ],
      "stateMutability": "view",
      "type": "function"
    },
    {
      "inputs": [
        {
          "internalType": "bytes32",
          "name": "",
          "type": "bytes32"
        }
      ],
      "name": "medicines",
      "outputs": [
        {
          "internalType": "string",
          "name": "name",
          "type": "string"
        },
        {
          "internalType": "bytes32",
          "name": "manufacturerId",
          "type": "bytes32"
        },
        {
          "internalType": "string",
          "name": "dosageForm",
          "type": "string"
        },
        {
          "internalType": "string",
          "name": "batchId",
          "type": "string"
        },
        {
          "internalType": "uint256",
          "name": "approvedDate",
          "type": "uint256"
        },
        {
          "internalType": "uint256",
          "name": "expiryDate",
          "type": "uint256"
        },
        {
          "internalType": "uint256",
          "name": "price",
          "type": "uint256"
        },
        {
          "internalType": "bool",
          "name": "isVerified",
          "type": "bool"
        },
        {
          "internalType": "string",
          "name": "description",
          "type": "string"
        },
        {
          "internalType": "bytes32",
          "name": "distributorId",
          "type": "bytes32"
        }
      ],
      "stateMutability": "view",
      "type": "function"
    },
    {
      "inputs": [
        {
          "internalType": "bytes32",
          "name": "",
          "type": "bytes32"
        }
      ],
      "name": "pharmacies",
      "outputs": [
        {
          "internalType": "string",
          "name": "name",
          "type": "string"
        },
        {
          "internalType": "bytes32",
          "name": "id",
          "type": "bytes32"
        },
        {
          "internalType": "string",
          "name": "password",
          "type": "string"
        },
        {
          "internalType": "string",
          "name": "location",
          "type": "string"
        },
        {
          "internalType": "string",
          "name": "businessRegistrationNumber",
          "type": "string"
        },
        {
          "internalType": "string",
          "name": "pharmacyLicenseNumber",
          "type": "string"
        },
        {
          "internalType": "bool",
          "name": "isRegistered",
          "type": "bool"
        }
      ],
      "stateMutability": "view",
      "type": "function"
    },
    {
      "inputs": [
        {
          "internalType": "string",
          "name": "_name",
          "type": "string"
        },
        {
          "internalType": "string",
          "name": "_businessRegistrationNumber",
          "type": "string"
        },
        {
          "internalType": "string",
          "name": "_distributionLicenseNumber",
          "type": "string"
        },
        {
          "internalType": "string",
          "name": "_description",
          "type": "string"
        },
        {
          "internalType": "string",
          "name": "_password",
          "type": "string"
        }
      ],
      "name": "registerDistributor",
      "outputs": [],
      "stateMutability": "nonpayable",
      "type": "function"
    },
    {
      "inputs": [
        {
          "internalType": "string",
          "name": "_name",
          "type": "string"
        },
        {
          "internalType": "string",
          "name": "_businessRegistrationNumber",
          "type": "string"
        },
        {
          "internalType": "string",
          "name": "_manufacturingLicenseNumber",
          "type": "string"
        },
        {
          "internalType": "string",
          "name": "_contactInfo",
          "type": "string"
        },
        {
          "internalType": "string",
          "name": "_password",
          "type": "string"
        }
      ],
      "name": "registerManufacturer",
      "outputs": [
        {
          "internalType": "bytes32",
          "name": "",
          "type": "bytes32"
        }
      ],
      "stateMutability": "nonpayable",
      "type": "function"
    },
    {
      "inputs": [
        {
          "internalType": "bytes32",
          "name": "_manufacturerId",
          "type": "bytes32"
        },
        {
          "internalType": "string",
          "name": "_name",
          "type": "string"
        },
        {
          "internalType": "string",
          "name": "_dosageForm",
          "type": "string"
        },
        {
          "internalType": "string",
          "name": "_batchId",
          "type": "string"
        },
        {
          "internalType": "string[]",
          "name": "_ingredients",
          "type": "string[]"
        },
        {
          "internalType": "uint256",
          "name": "_expiryDate",
          "type": "uint256"
        },
        {
          "internalType": "uint256",
          "name": "_price",
          "type": "uint256"
        },
        {
          "internalType": "string",
          "name": "_description",
          "type": "string"
        }
      ],
      "name": "registerMedicine",
      "outputs": [
        {
          "components": [
            {
              "internalType": "string",
              "name": "name",
              "type": "string"
            },
            {
              "internalType": "bytes32",
              "name": "manufacturerId",
              "type": "bytes32"
            },
            {
              "internalType": "string",
              "name": "dosageForm",
              "type": "string"
            },
            {
              "internalType": "string",
              "name": "batchId",
              "type": "string"
            },
            {
              "internalType": "string[]",
              "name": "ingredients",
              "type": "string[]"
            },
            {
              "internalType": "uint256",
              "name": "approvedDate",
              "type": "uint256"
            },
            {
              "internalType": "uint256",
              "name": "expiryDate",
              "type": "uint256"
            },
            {
              "internalType": "uint256",
              "name": "price",
              "type": "uint256"
            },
            {
              "internalType": "bool",
              "name": "isVerified",
              "type": "bool"
            },
            {
              "internalType": "string",
              "name": "description",
              "type": "string"
            }
          ],
          "internalType": "struct CounterfeitMed.MedicineRegistration",
          "name": "",
          "type": "tuple"
        }
      ],
      "stateMutability": "nonpayable",
      "type": "function"
    },
    {
      "inputs": [
        {
          "internalType": "string",
          "name": "_name",
          "type": "string"
        },
        {
          "internalType": "string",
          "name": "_password",
          "type": "string"
        },
        {
          "internalType": "string",
          "name": "_location",
          "type": "string"
        },
        {
          "internalType": "string",
          "name": "_businessRegistrationNumber",
          "type": "string"
        },
        {
          "internalType": "string",
          "name": "_pharmacyLicenseNumber",
          "type": "string"
        }
      ],
      "name": "registerPharmacy",
      "outputs": [],
      "stateMutability": "nonpayable",
      "type": "function"
    },
    {
      "inputs": [
        {
          "internalType": "bytes32",
          "name": "_medicineId",
          "type": "bytes32"
        }
      ],
      "name": "regulatoryBody",
      "outputs": [],
      "stateMutability": "nonpayable",
      "type": "function"
    },
    {
      "inputs": [
        {
          "internalType": "bytes32",
          "name": "_id",
          "type": "bytes32"
        }
      ],
      "name": "verifyManufacturer",
      "outputs": [],
      "stateMutability": "nonpayable",
      "type": "function"
    }
  ],
  "bytecode": "0x608060405234801561001057600080fd5b50613e06806100206000396000f3fe608060405234801561001057600080fd5b50600436106100cf5760003560e01c8063a7ad0cbd1161008c578063c2809daf11610066578063c2809daf1461025c578063d08bcbe514610296578063ee9343b8146102b2578063ef527417146102ce576100cf565b8063a7ad0cbd146101da578063a8d6b3da1461020a578063ab789db114610240576100cf565b80630b9df443146100d45780631745980f14610104578063295208b81461013a57806358467dbc1461015657806396a5a38e14610187578063a18d7513146101a3575b600080fd5b6100ee60048036038101906100e99190612ee8565b610307565b6040516100fb919061365b565b60405180910390f35b61011e60048036038101906101199190612cda565b61052f565b6040516101319796959493929190613736565b60405180910390f35b610154600480360381019061014f9190612ee8565b610876565b005b610170600480360381019061016b9190612e7c565b610a6e565b60405161017e92919061369f565b60405180910390f35b6101a1600480360381019061019c9190612cda565b610b2b565b005b6101bd60048036038101906101b89190612cda565b610b89565b6040516101d1989796959493929190613880565b60405180910390f35b6101f460048036038101906101ef9190612d52565b610ee3565b6040516102019190613bf8565b60405180910390f35b610224600480360381019061021f9190612cda565b6111f8565b6040516102379796959493929190613921565b60405180910390f35b61025a60048036038101906102559190612cda565b61153f565b005b61027660048036038101906102719190612cda565b61161e565b60405161028d9b9a999897969594939291906139b3565b60405180910390f35b6102b060048036038101906102ab9190612ee8565b6122a2565b005b6102cc60048036038101906102c79190612d03565b61249a565b005b6102e860048036038101906102e39190612cda565b612643565b6040516102fe9a999897969594939291906137c8565b60405180910390f35b60006002866040516103199190613620565b908152602001604051809103902060009054906101000a900460ff1615610375576040517f08c379a000000000000000000000000000000000000000000000000000000000815260040161036c90613ab8565b60405180910390fd5b60006103818784612904565b90506040518061010001604052808881526020018781526020018681526020018581526020018481526020016000151581526020018281526020016001151581525060008083815260200190815260200160002060008201518160000190805190602001906103f1929190612937565b50602082015181600101908051906020019061040e929190612937565b50604082015181600201908051906020019061042b929190612937565b506060820151816003019080519060200190610448929190612937565b506080820151816004019080519060200190610465929190612937565b5060a08201518160050160006101000a81548160ff02191690831515021790555060c0820151816006015560e08201518160070160006101000a81548160ff02191690831515021790555090505060016002886040516104c59190613620565b908152602001604051809103902060006101000a81548160ff021916908315150217905550807f19d1ce4c86a194c622bd8d674094509f31bbf76deb131c20e4231c65547590248860405161051a9190613714565b60405180910390a28091505095945050505050565b6004602052806000526040600020600091509050806000018054600181600116156101000203166002900480601f0160208091040260200160405190810160405280929190818152602001828054600181600116156101000203166002900480156105db5780601f106105b0576101008083540402835291602001916105db565b820191906000526020600020905b8154815290600101906020018083116105be57829003601f168201915b505050505090806001015490806002018054600181600116156101000203166002900480601f01602080910402602001604051908101604052809291908181526020018280546001816001161561010002031660029004801561067f5780601f106106545761010080835404028352916020019161067f565b820191906000526020600020905b81548152906001019060200180831161066257829003601f168201915b505050505090806003018054600181600116156101000203166002900480601f01602080910402602001604051908101604052809291908181526020018280546001816001161561010002031660029004801561071d5780601f106106f25761010080835404028352916020019161071d565b820191906000526020600020905b81548152906001019060200180831161070057829003601f168201915b505050505090806004018054600181600116156101000203166002900480601f0160208091040260200160405190810160405280929190818152602001828054600181600116156101000203166002900480156107bb5780601f10610790576101008083540402835291602001916107bb565b820191906000526020600020905b81548152906001019060200180831161079e57829003601f168201915b505050505090806005018054600181600116156101000203166002900480601f0160208091040260200160405190810160405280929190818152602001828054600181600116156101000203166002900480156108595780601f1061082e57610100808354040283529160200191610859565b820191906000526020600020905b81548152906001019060200180831161083c57829003601f168201915b5050505050908060060160009054906101000a900460ff16905087565b6002856040516108869190613620565b908152602001604051809103902060009054906101000a900460ff16156108e2576040517f08c379a00000000000000000000000000000000000000000000000000000000081526004016108d990613bb8565b60405180910390fd5b60006108ee8683612904565b90506040518060e0016040528087815260200186815260200185815260200184815260200183815260200182815260200160011515815250600360008381526020019081526020016000206000820151816000019080519060200190610955929190612937565b506020820151816001019080519060200190610972929190612937565b50604082015181600201908051906020019061098f929190612937565b5060608201518160030190805190602001906109ac929190612937565b5060808201518160040190805190602001906109c9929190612937565b5060a0820151816005015560c08201518160060160006101000a81548160ff0219169083151502179055509050506001600287604051610a099190613620565b908152602001604051809103902060006101000a81548160ff021916908315150217905550807f243c1d60efeee09a0ab8a744317fe2dade8040750dd26606bf3c06df94e4bf1387604051610a5e9190613714565b60405180910390a2505050505050565b600060606000610a7e8585612904565b905060008082815260200190815260200160002060070160009054906101000a900460ff1615610ae957806040518060400160405280600c81526020017f4d616e75666163747572657200000000000000000000000000000000000000008152509250925050610b24565b6040517f08c379a0000000000000000000000000000000000000000000000000000000008152600401610b1b90613bd8565b60405180910390fd5b9250929050565b600180600083815260200190815260200160002060080160006101000a81548160ff021916908315150217905550807f981c7faffdebef27234f055d1a59c92e6bb76a521c65ed533c75e17b383e537360405160405180910390a250565b6000602052806000526040600020600091509050806000018054600181600116156101000203166002900480601f016020809104026020016040519081016040528092919081815260200182805460018160011615610100020316600290048015610c355780601f10610c0a57610100808354040283529160200191610c35565b820191906000526020600020905b815481529060010190602001808311610c1857829003601f168201915b505050505090806001018054600181600116156101000203166002900480601f016020809104026020016040519081016040528092919081815260200182805460018160011615610100020316600290048015610cd35780601f10610ca857610100808354040283529160200191610cd3565b820191906000526020600020905b815481529060010190602001808311610cb657829003601f168201915b505050505090806002018054600181600116156101000203166002900480601f016020809104026020016040519081016040528092919081815260200182805460018160011615610100020316600290048015610d715780601f10610d4657610100808354040283529160200191610d71565b820191906000526020600020905b815481529060010190602001808311610d5457829003601f168201915b505050505090806003018054600181600116156101000203166002900480601f016020809104026020016040519081016040528092919081815260200182805460018160011615610100020316600290048015610e0f5780601f10610de457610100808354040283529160200191610e0f565b820191906000526020600020905b815481529060010190602001808311610df257829003601f168201915b505050505090806004018054600181600116156101000203166002900480601f016020809104026020016040519081016040528092919081815260200182805460018160011615610100020316600290048015610ead5780601f10610e8257610100808354040283529160200191610ead565b820191906000526020600020905b815481529060010190602001808311610e9057829003601f168201915b5050505050908060050160009054906101000a900460ff16908060060154908060070160009054906101000a900460ff16905088565b610eeb6129b7565b6000808a815260200190815260200160002060070160009054906101000a900460ff16610f4d576040517f08c379a0000000000000000000000000000000000000000000000000000000008152600401610f4490613b98565b60405180910390fd5b6000898988604051602001610f64939291906136cf565b6040516020818303038152906040528051906020012090506000600160008381526020019081526020016000206006015414610fd5576040517f08c379a0000000000000000000000000000000000000000000000000000000008152600401610fcc90613af8565b60405180910390fd5b610fdd6129b7565b6040518061014001604052808b81526020018c81526020018a8152602001898152602001888152602001600081526020018781526020018681526020016000151581526020018581525090506040518061016001604052808b81526020018c81526020018a8152602001898152602001888152602001600081526020018781526020018681526020016000151581526020018581526020016000801b8152506001600084815260200190815260200160002060008201518160000190805190602001906110ab929190612937565b506020820151816001015560408201518160020190805190602001906110d2929190612937565b5060608201518160030190805190602001906110ef929190612937565b50608082015181600401908051906020019061110c929190612a0f565b5060a0820151816005015560c0820151816006015560e082015181600701556101008201518160080160006101000a81548160ff021916908315150217905550610120820151816009019080519060200190611169929190612937565b5061014082015181600a01559050507f4dfa1b0566fb485f755a8e23d08f081eadb8274e6105c6ede59a7fb3847d54b3816040516111a79190613bf8565b60405180910390a1817f3c2a02f6d2c755e3e73981d4b6afea8b2742be20509d825e1323914253d6628f8b6040516111df9190613714565b60405180910390a2809250505098975050505050505050565b6003602052806000526040600020600091509050806000018054600181600116156101000203166002900480601f0160208091040260200160405190810160405280929190818152602001828054600181600116156101000203166002900480156112a45780601f10611279576101008083540402835291602001916112a4565b820191906000526020600020905b81548152906001019060200180831161128757829003601f168201915b505050505090806001018054600181600116156101000203166002900480601f0160208091040260200160405190810160405280929190818152602001828054600181600116156101000203166002900480156113425780601f1061131757610100808354040283529160200191611342565b820191906000526020600020905b81548152906001019060200180831161132557829003601f168201915b505050505090806002018054600181600116156101000203166002900480601f0160208091040260200160405190810160405280929190818152602001828054600181600116156101000203166002900480156113e05780601f106113b5576101008083540402835291602001916113e0565b820191906000526020600020905b8154815290600101906020018083116113c357829003601f168201915b505050505090806003018054600181600116156101000203166002900480601f01602080910402602001604051908101604052809291908181526020018280546001816001161561010002031660029004801561147e5780601f106114535761010080835404028352916020019161147e565b820191906000526020600020905b81548152906001019060200180831161146157829003601f168201915b505050505090806004018054600181600116156101000203166002900480601f01602080910402602001604051908101604052809291908181526020018280546001816001161561010002031660029004801561151c5780601f106114f15761010080835404028352916020019161151c565b820191906000526020600020905b8154815290600101906020018083116114ff57829003601f168201915b5050505050908060050154908060060160009054906101000a900460ff16905087565b60008082815260200190815260200160002060070160009054906101000a900460ff166115a1576040517f08c379a000000000000000000000000000000000000000000000000000000000815260040161159890613b98565b60405180910390fd5b600160008083815260200190815260200160002060050160006101000a81548160ff021916908315150217905550807fb0ef514c7d2290725437455ac40e30b7603cd5171db753b95cfdf464ad76aa8a6000808481526020019081526020016000206000016040516116139190613a96565b60405180910390a250565b6060806060806060806060806000806000808c905061163b612a6f565b6001600083815260200190815260200160002060405180610160016040529081600082018054600181600116156101000203166002900480601f0160208091040260200160405190810160405280929190818152602001828054600181600116156101000203166002900480156116f35780601f106116c8576101008083540402835291602001916116f3565b820191906000526020600020905b8154815290600101906020018083116116d657829003601f168201915b5050505050815260200160018201548152602001600282018054600181600116156101000203166002900480601f01602080910402602001604051908101604052809291908181526020018280546001816001161561010002031660029004801561179f5780601f106117745761010080835404028352916020019161179f565b820191906000526020600020905b81548152906001019060200180831161178257829003601f168201915b50505050508152602001600382018054600181600116156101000203166002900480601f0160208091040260200160405190810160405280929190818152602001828054600181600116156101000203166002900480156118415780601f1061181657610100808354040283529160200191611841565b820191906000526020600020905b81548152906001019060200180831161182457829003601f168201915b5050505050815260200160048201805480602002602001604051908101604052809291908181526020016000905b8282101561192b578382906000526020600020018054600181600116156101000203166002900480601f0160208091040260200160405190810160405280929190818152602001828054600181600116156101000203166002900480156119175780601f106118ec57610100808354040283529160200191611917565b820191906000526020600020905b8154815290600101906020018083116118fa57829003601f168201915b50505050508152602001906001019061186f565b5050505081526020016005820154815260200160068201548152602001600782015481526020016008820160009054906101000a900460ff16151515158152602001600982018054600181600116156101000203166002900480601f016020809104026020016040519081016040528092919081815260200182805460018160011615610100020316600290048015611a055780601f106119da57610100808354040283529160200191611a05565b820191906000526020600020905b8154815290600101906020018083116119e857829003601f168201915b50505050508152602001600a82015481525050905060008160c001511415611a62576040517f08c379a0000000000000000000000000000000000000000000000000000000008152600401611a5990613b38565b60405180910390fd5b6000808260200151815260200190815260200160002060070160009054906101000a900460ff16611ac8576040517f08c379a0000000000000000000000000000000000000000000000000000000008152600401611abf90613b98565b60405180910390fd5b60036000826101400151815260200190815260200160002060060160009054906101000a900460ff16611b30576040517f08c379a0000000000000000000000000000000000000000000000000000000008152600401611b2790613b78565b60405180910390fd5b611b38612ad1565b6000808360200151815260200190815260200160002060405180610100016040529081600082018054600181600116156101000203166002900480601f016020809104026020016040519081016040528092919081815260200182805460018160011615610100020316600290048015611bf35780601f10611bc857610100808354040283529160200191611bf3565b820191906000526020600020905b815481529060010190602001808311611bd657829003601f168201915b50505050508152602001600182018054600181600116156101000203166002900480601f016020809104026020016040519081016040528092919081815260200182805460018160011615610100020316600290048015611c955780601f10611c6a57610100808354040283529160200191611c95565b820191906000526020600020905b815481529060010190602001808311611c7857829003601f168201915b50505050508152602001600282018054600181600116156101000203166002900480601f016020809104026020016040519081016040528092919081815260200182805460018160011615610100020316600290048015611d375780601f10611d0c57610100808354040283529160200191611d37565b820191906000526020600020905b815481529060010190602001808311611d1a57829003601f168201915b50505050508152602001600382018054600181600116156101000203166002900480601f016020809104026020016040519081016040528092919081815260200182805460018160011615610100020316600290048015611dd95780601f10611dae57610100808354040283529160200191611dd9565b820191906000526020600020905b815481529060010190602001808311611dbc57829003601f168201915b50505050508152602001600482018054600181600116156101000203166002900480601f016020809104026020016040519081016040528092919081815260200182805460018160011615610100020316600290048015611e7b5780601f10611e5057610100808354040283529160200191611e7b565b820191906000526020600020905b815481529060010190602001808311611e5e57829003601f168201915b505050505081526020016005820160009054906101000a900460ff16151515158152602001600682015481526020016007820160009054906101000a900460ff1615151515815250509050611ece612b1d565b6003600084610140015181526020019081526020016000206040518060e0016040529081600082018054600181600116156101000203166002900480601f016020809104026020016040519081016040528092919081815260200182805460018160011615610100020316600290048015611f8a5780601f10611f5f57610100808354040283529160200191611f8a565b820191906000526020600020905b815481529060010190602001808311611f6d57829003601f168201915b50505050508152602001600182018054600181600116156101000203166002900480601f01602080910402602001604051908101604052809291908181526020018280546001816001161561010002031660029004801561202c5780601f106120015761010080835404028352916020019161202c565b820191906000526020600020905b81548152906001019060200180831161200f57829003601f168201915b50505050508152602001600282018054600181600116156101000203166002900480601f0160208091040260200160405190810160405280929190818152602001828054600181600116156101000203166002900480156120ce5780601f106120a3576101008083540402835291602001916120ce565b820191906000526020600020905b8154815290600101906020018083116120b157829003601f168201915b50505050508152602001600382018054600181600116156101000203166002900480601f0160208091040260200160405190810160405280929190818152602001828054600181600116156101000203166002900480156121705780601f1061214557610100808354040283529160200191612170565b820191906000526020600020905b81548152906001019060200180831161215357829003601f168201915b50505050508152602001600482018054600181600116156101000203166002900480601f0160208091040260200160405190810160405280929190818152602001828054600181600116156101000203166002900480156122125780601f106121e757610100808354040283529160200191612212565b820191906000526020600020905b8154815290600101906020018083116121f557829003601f168201915b50505050508152602001600582015481526020016006820160009054906101000a900460ff1615151515815250509050816000015182602001518360400151846060015184600001518560200151866040015187606001518a60a001518b60c001518c60e001519e509e509e509e509e509e509e509e509e509e509e505050505091939597999b90929496989a50565b6002856040516122b29190613620565b908152602001604051809103902060009054906101000a900460ff161561230e576040517f08c379a000000000000000000000000000000000000000000000000000000000815260040161230590613b58565b60405180910390fd5b600061231a8686612904565b90506040518060e0016040528087815260200182815260200186815260200185815260200184815260200183815260200160011515815250600460008381526020019081526020016000206000820151816000019080519060200190612381929190612937565b506020820151816001015560408201518160020190805190602001906123a8929190612937565b5060608201518160030190805190602001906123c5929190612937565b5060808201518160040190805190602001906123e2929190612937565b5060a08201518160050190805190602001906123ff929190612937565b5060c08201518160060160006101000a81548160ff02191690831515021790555090505060016002876040516124359190613620565b908152602001604051809103902060006101000a81548160ff021916908315150217905550807f946dc19024798a3cda5b4d6e537933a16f43a4560fc7e2aa4d0b42f2256fb9688760405161248a9190613714565b60405180910390a2505050505050565b60008083815260200190815260200160002060070160009054906101000a900460ff166124fc576040517f08c379a00000000000000000000000000000000000000000000000000000000081526004016124f390613b98565b60405180910390fd5b60008282604051602001612511929190613676565b6040516020818303038152906040528051906020012090506001600082815260200190815260200160002060080160009054906101000a900460ff161561258d576040517f08c379a000000000000000000000000000000000000000000000000000000000815260040161258490613ad8565b60405180910390fd5b6000801b60016000838152602001908152602001600020600a0154146125e8576040517f08c379a00000000000000000000000000000000000000000000000000000000081526004016125df90613b18565b60405180910390fd5b8360016000838152602001908152602001600020600a0181905550807f531796d3b298349781ca39a9f098910f40773446f79dace6069af9970ca4545e8585604051612635929190613676565b60405180910390a250505050565b6001602052806000526040600020600091509050806000018054600181600116156101000203166002900480601f0160208091040260200160405190810160405280929190818152602001828054600181600116156101000203166002900480156126ef5780601f106126c4576101008083540402835291602001916126ef565b820191906000526020600020905b8154815290600101906020018083116126d257829003601f168201915b505050505090806001015490806002018054600181600116156101000203166002900480601f0160208091040260200160405190810160405280929190818152602001828054600181600116156101000203166002900480156127935780601f1061276857610100808354040283529160200191612793565b820191906000526020600020905b81548152906001019060200180831161277657829003601f168201915b505050505090806003018054600181600116156101000203166002900480601f0160208091040260200160405190810160405280929190818152602001828054600181600116156101000203166002900480156128315780601f1061280657610100808354040283529160200191612831565b820191906000526020600020905b81548152906001019060200180831161281457829003601f168201915b5050505050908060050154908060060154908060070154908060080160009054906101000a900460ff1690806009018054600181600116156101000203166002900480601f0160208091040260200160405190810160405280929190818152602001828054600181600116156101000203166002900480156128f45780601f106128c9576101008083540402835291602001916128f4565b820191906000526020600020905b8154815290600101906020018083116128d757829003601f168201915b50505050509080600a015490508a565b60008282604051602001612919929190613637565b60405160208183030381529060405280519060200120905092915050565b828054600181600116156101000203166002900490600052602060002090601f016020900481019282601f1061297857805160ff19168380011785556129a6565b828001600101855582156129a6579182015b828111156129a557825182559160200191906001019061298a565b5b5090506129b39190612b5f565b5090565b6040518061014001604052806060815260200160008019168152602001606081526020016060815260200160608152602001600081526020016000815260200160008152602001600015158152602001606081525090565b828054828255906000526020600020908101928215612a5e579160200282015b82811115612a5d578251829080519060200190612a4d929190612937565b5091602001919060010190612a2f565b5b509050612a6b9190612b7c565b5090565b604051806101600160405280606081526020016000801916815260200160608152602001606081526020016060815260200160008152602001600081526020016000815260200160001515815260200160608152602001600080191681525090565b6040518061010001604052806060815260200160608152602001606081526020016060815260200160608152602001600015158152602001600080191681526020016000151581525090565b6040518060e001604052806060815260200160608152602001606081526020016060815260200160608152602001600080191681526020016000151581525090565b5b80821115612b78576000816000905550600101612b60565b5090565b5b80821115612b9c5760008181612b939190612ba0565b50600101612b7d565b5090565b50805460018160011615610100020316600290046000825580601f10612bc65750612be5565b601f016020900490600052602060002090810190612be49190612b5f565b5b50565b600082601f830112612bf957600080fd5b8135612c0c612c0782613c4b565b613c1a565b9150818183526020840193506020810190508360005b83811015612c525781358601612c388882612c71565b845260208401935060208301925050600181019050612c22565b5050505092915050565b600081359050612c6b81613da2565b92915050565b600082601f830112612c8257600080fd5b8135612c95612c9082613c77565b613c1a565b91508082526020830160208301858383011115612cb157600080fd5b612cbc838284613d4d565b50505092915050565b600081359050612cd481613db9565b92915050565b600060208284031215612cec57600080fd5b6000612cfa84828501612c5c565b91505092915050565b600080600060608486031215612d1857600080fd5b6000612d2686828701612c5c565b9350506020612d3786828701612c5c565b9250506040612d4886828701612c5c565b9150509250925092565b600080600080600080600080610100898b031215612d6f57600080fd5b6000612d7d8b828c01612c5c565b985050602089013567ffffffffffffffff811115612d9a57600080fd5b612da68b828c01612c71565b975050604089013567ffffffffffffffff811115612dc357600080fd5b612dcf8b828c01612c71565b965050606089013567ffffffffffffffff811115612dec57600080fd5b612df88b828c01612c71565b955050608089013567ffffffffffffffff811115612e1557600080fd5b612e218b828c01612be8565b94505060a0612e328b828c01612cc5565b93505060c0612e438b828c01612cc5565b92505060e089013567ffffffffffffffff811115612e6057600080fd5b612e6c8b828c01612c71565b9150509295985092959890939650565b60008060408385031215612e8f57600080fd5b600083013567ffffffffffffffff811115612ea957600080fd5b612eb585828601612c71565b925050602083013567ffffffffffffffff811115612ed257600080fd5b612ede85828601612c71565b9150509250929050565b600080600080600060a08688031215612f0057600080fd5b600086013567ffffffffffffffff811115612f1a57600080fd5b612f2688828901612c71565b955050602086013567ffffffffffffffff811115612f4357600080fd5b612f4f88828901612c71565b945050604086013567ffffffffffffffff811115612f6c57600080fd5b612f7888828901612c71565b935050606086013567ffffffffffffffff811115612f9557600080fd5b612fa188828901612c71565b925050608086013567ffffffffffffffff811115612fbe57600080fd5b612fca88828901612c71565b9150509295509295909350565b6000612fe3838361309c565b905092915050565b6000612ff682613ccc565b6130008185613cef565b93508360208202850161301285613ca7565b8060005b8581101561304e578484038952815161302f8582612fd7565b945061303a83613ce2565b925060208a01995050600181019050613016565b50829750879550505050505092915050565b61306981613d2d565b82525050565b61307881613d2d565b82525050565b61308781613d39565b82525050565b61309681613d39565b82525050565b60006130a782613cd7565b6130b18185613d00565b93506130c1818560208601613d5c565b6130ca81613d91565b840191505092915050565b60006130e082613cd7565b6130ea8185613d11565b93506130fa818560208601613d5c565b61310381613d91565b840191505092915050565b600061311982613cd7565b6131238185613d22565b9350613133818560208601613d5c565b80840191505092915050565b60008154600181166000811461315c5760018114613182576131c6565b607f600283041661316d8187613d11565b955060ff1983168652602086019350506131c6565b600282046131908187613d11565b955061319b85613cb7565b60005b828110156131bd5781548189015260018201915060208101905061319e565b80880195505050505b505092915050565b60006131db602a83613d11565b91507f4d616e75666163747572657220776974682074686973206e616d6520616c726560008301527f61647920657869737473000000000000000000000000000000000000000000006020830152604082019050919050565b6000613241601c83613d11565b91507f4d65646963696e6520697320616c7265616479207665726966696564000000006000830152602082019050919050565b6000613281603383613d11565b91507f4d65646963696e6520776974682074686973206e616d6520616e64206261746360008301527f6820494420616c726561647920657869737473000000000000000000000000006020830152604082019050919050565b60006132e7601a83613d11565b91507f4d65646963696e6520697320616c726561647920626f756768740000000000006000830152602082019050919050565b6000613327602683613d11565b91507f4d65646963696e6520776974682074686973206861736820646f6573206e6f7460008301527f20657869737400000000000000000000000000000000000000000000000000006020830152604082019050919050565b600061338d602683613d11565b91507f506861726d61637920776974682074686973206e616d6520616c72656164792060008301527f65786973747300000000000000000000000000000000000000000000000000006020830152604082019050919050565b60006133f3601d83613d11565b91507f4469737472696275746f72206973206e6f7420726567697374657265640000006000830152602082019050919050565b6000613433601e83613d11565b91507f4d616e756661637475726572206973206e6f74207265676973746572656400006000830152602082019050919050565b6000613473602983613d11565b91507f4469737472696275746f7220776974682074686973206e616d6520616c72656160008301527f64792065786973747300000000000000000000000000000000000000000000006020830152604082019050919050565b60006134d9601383613d11565b91507f496e76616c69642063726564656e7469616c73000000000000000000000000006000830152602082019050919050565b600061014083016000830151848203600086015261352a828261309c565b915050602083015161353f602086018261307e565b5060408301518482036040860152613557828261309c565b91505060608301518482036060860152613571828261309c565b9150506080830151848203608086015261358b8282612feb565b91505060a08301516135a060a0860182613602565b5060c08301516135b360c0860182613602565b5060e08301516135c660e0860182613602565b506101008301516135db610100860182613060565b506101208301518482036101208601526135f5828261309c565b9150508091505092915050565b61360b81613d43565b82525050565b61361a81613d43565b82525050565b600061362c828461310e565b915081905092915050565b6000613643828561310e565b915061364f828461310e565b91508190509392505050565b6000602082019050613670600083018461308d565b92915050565b600060408201905061368b600083018561308d565b613698602083018461308d565b9392505050565b60006040820190506136b4600083018561308d565b81810360208301526136c681846130d5565b90509392505050565b60006060820190506136e4600083018661308d565b81810360208301526136f681856130d5565b9050818103604083015261370a81846130d5565b9050949350505050565b6000602082019050818103600083015261372e81846130d5565b905092915050565b600060e0820190508181036000830152613750818a6130d5565b905061375f602083018961308d565b818103604083015261377181886130d5565b9050818103606083015261378581876130d5565b9050818103608083015261379981866130d5565b905081810360a08301526137ad81856130d5565b90506137bc60c083018461306f565b98975050505050505050565b60006101408201905081810360008301526137e3818d6130d5565b90506137f2602083018c61308d565b8181036040830152613804818b6130d5565b90508181036060830152613818818a6130d5565b90506138276080830189613611565b61383460a0830188613611565b61384160c0830187613611565b61384e60e083018661306f565b81810361010083015261386181856130d5565b905061387161012083018461308d565b9b9a5050505050505050505050565b600061010082019050818103600083015261389b818b6130d5565b905081810360208301526138af818a6130d5565b905081810360408301526138c381896130d5565b905081810360608301526138d781886130d5565b905081810360808301526138eb81876130d5565b90506138fa60a083018661306f565b61390760c083018561308d565b61391460e083018461306f565b9998505050505050505050565b600060e082019050818103600083015261393b818a6130d5565b9050818103602083015261394f81896130d5565b9050818103604083015261396381886130d5565b9050818103606083015261397781876130d5565b9050818103608083015261398b81866130d5565b905061399a60a083018561308d565b6139a760c083018461306f565b98975050505050505050565b60006101608201905081810360008301526139ce818e6130d5565b905081810360208301526139e2818d6130d5565b905081810360408301526139f6818c6130d5565b90508181036060830152613a0a818b6130d5565b90508181036080830152613a1e818a6130d5565b905081810360a0830152613a3281896130d5565b905081810360c0830152613a4681886130d5565b905081810360e0830152613a5a81876130d5565b9050613a6a610100830186613611565b613a78610120830185613611565b613a86610140830184613611565b9c9b505050505050505050505050565b60006020820190508181036000830152613ab0818461313f565b905092915050565b60006020820190508181036000830152613ad1816131ce565b9050919050565b60006020820190508181036000830152613af181613234565b9050919050565b60006020820190508181036000830152613b1181613274565b9050919050565b60006020820190508181036000830152613b31816132da565b9050919050565b60006020820190508181036000830152613b518161331a565b9050919050565b60006020820190508181036000830152613b7181613380565b9050919050565b60006020820190508181036000830152613b91816133e6565b9050919050565b60006020820190508181036000830152613bb181613426565b9050919050565b60006020820190508181036000830152613bd181613466565b9050919050565b60006020820190508181036000830152613bf1816134cc565b9050919050565b60006020820190508181036000830152613c12818461350c565b905092915050565b6000604051905081810181811067ffffffffffffffff82111715613c4157613c40613d8f565b5b8060405250919050565b600067ffffffffffffffff821115613c6657613c65613d8f565b5b602082029050602081019050919050565b600067ffffffffffffffff821115613c9257613c91613d8f565b5b601f19601f8301169050602081019050919050565b6000819050602082019050919050565b60008190508160005260206000209050919050565b600081519050919050565b600081519050919050565b6000602082019050919050565b600082825260208201905092915050565b600082825260208201905092915050565b600082825260208201905092915050565b600081905092915050565b60008115159050919050565b6000819050919050565b6000819050919050565b82818337600083830152505050565b60005b83811015613d7a578082015181840152602081019050613d5f565b83811115613d89576000848401525b50505050565bfe5b6000601f19601f8301169050919050565b613dab81613d39565b8114613db657600080fd5b50565b613dc281613d43565b8114613dcd57600080fd5b5056fea26469706673582212203a3aad5ab09b5b559139071f017b86cb5758b3f2cd55b07c91b14dbe30973e5a64736f6c63430007030033",
  "linkReferences": {},
  "deployedLinkReferences": {}
}